:100000000C94E0000C9408010C9408010C949807DF
:100010000C9498070C9498070C9408010C94080110
:100020000C9408010C9408010C9408010C9408012C
:100030000C9408010C9408010C9408010C9408011C
:100040000C944E070C9408010C941C070C94F606B3
:100050000C9408010C9408010C9408010C940801FC
:100060000C9408010C94080100407A10F35A00A087
:10007000724E18090010A5D4E80000E87648170071
:1000800000E40B54020000CA9A3B000000E1F505B1
:10009000000080969800000040420F000000A086FB
:1000A00001000000102700000000E803000000002D
:1000B0006400000000000A000000000001000000D1
:1000C00000002C76D888DC674F0823DFC1DFAE59EB
:1000D000E1B1B796E5E3E453C63AE651997696E87E
:1000E000E6C28426EB898C9B62ED407C6FFCEFBC02
:1000F0009C9F40F2BAA56FA5F490055A2AF75C932D
:100100006B6CF9676DC11BFCE0E40D47FEF520E662
:10011000B500D0ED902E0300943577050080841E45
:10012000080000204E0A000000C80C333333330FA0
:10013000986E12831141EF8D2114893BE65516CF3D
:10014000FEE6DB18D1844B381BF77C1D901DA4BB49
:10015000E424203284725E228100C9F124ECA1E5FE
:100160003D2700000000240027002A0000000008AE
:10017000000201000003040700000000000000006E
:1001800000000000230026002900000000002500D8
:1001900028002B00040404040404040402020202E4
:1001A000020203030303030301020408102040803A
:1001B0000102040810200102040810203E08D10AA0
:1001C00011241FBECFEFD8E0DEBFCDBF23E0A8E9EA
:1001D000B1E001C01D92A135B207E1F711E0A0E046
:1001E000B1E0E4E1F4E202C005900D92A839B10754
:1001F000D9F710E0CFEDD0E004C02197FE010E94B6
:100200000510CE3DD107C9F70E94E6080C94FD11F8
:100210000C9400000895AF92BF92CF92DF92EF92BC
:10022000FF920F931F93CF93DF936C017B018B01A0
:10023000040F151FEB015E01AE18BF08C017D107F0
:1002400059F06991D601ED91FC910190F081E02D7A
:10025000C6010995892B79F7C501DF91CF911F91CF
:100260000F91FF90EF90DF90CF90BF90AF900895E7
:10027000FC01538D448D252F30E0842F90E0821BAC
:10028000930B541710F0CF96089501970895FC0131
:10029000918D828D981761F0A28DAE0FBF2FB11D89
:1002A0005D968C91928D9F5F9F73928F90E00895E1
:1002B0008FEF9FEF0895FC01918D828D981731F09B
:1002C000828DE80FF11D858D90E008958FEF9FEFEF
:1002D0000895FC01918D228D892F90E0805C9F4FC5
:1002E000821B91098F73992708958DEE91E00E94EA
:1002F000690121E0892B09F420E0822F089580E034
:1003000090E0892B29F00E94750181110C94000066
:100310000895FC01A48DA80FB92FB11DA35ABF4F9A
:100320002C91848D90E001968F739927848FA689F4
:10033000B7892C93A089B1898C91837080648C9348
:10034000938D848D981306C00288F389E02D8081F7
:100350008F7D80830895EF92FF920F931F93CF9329
:10036000DF93EC0181E0888F9B8D8C8D98131AC0F0
:10037000E889F989808185FF15C09FB7F894EE89D7
:10038000FF896083E889F989808183708064808334
:100390009FBF81E090E0DF91CF911F910F91FF907F
:1003A000EF900895F62E0B8D10E00F5F1F4F0F7327
:1003B0001127E02E8C8D8E110CC00FB607FCFACFE2
:1003C000E889F989808185FFF5CFCE010E948901F6
:1003D000F1CFEB8DEC0FFD2FF11DE35AFF4FF082B3
:1003E0009FB7F8940B8FEA89FB8980818062CFCF19
:1003F000CF93DF93EC01888D8823B9F0AA89BB895C
:10040000E889F9898C9185FD03C0808186FD0DC046
:100410000FB607FCF7CF8C9185FFF2CF808185FF67
:10042000EDCFCE010E948901E9CFDF91CF910895F0
:10043000833081F028F4813099F08230A9F008955A
:100440008730A9F08830C9F08430B1F48091800001
:100450008F7D03C0809180008F7780938000089506
:1004600084B58F7784BD089584B58F7DFBCF80914F
:10047000B0008F778093B00008958091B0008F7D99
:10048000F9CFCF93DF9390E0FC01E855FE4F249124
:100490008C569E4FFC0184918823D1F090E0880F08
:1004A000991FFC01EE59FE4FA591B491FC01E6574E
:1004B000FE4FC591D49161110EC09FB7F8948C91F5
:1004C000E22FE0958E238C932881E223E8839FBF5F
:1004D000DF91CF9108958FB7F894EC91E22BEC93D4
:1004E0008FBFF6CF0F931F93CF93DF93EC01162F9F
:1004F000042F1B821A8288EE93E0A0E0B0E08C8388
:100500009D83AE83BF838AE091E0998388831F8AAD
:100510001E8A198E188E1B8E1A8E1D8E1C8E6E8D45
:100520006E7F6D7F6E8F6695617081E06827842F86
:100530000E94100861E0802F0E944102802F90E00D
:10054000FC01E855FE4FE491E88BFC01EC56FE4FB0
:10055000E491F0E0EE0FFF1FE657FE4F8591949176
:100560009A8B898B60E0812F0E9441028E8D81FDE4
:1005700004C061E0812F0E9410081C87812F90E049
:10058000FC01E855FE4FE491ED87FC01EC56FE4F6F
:10059000E491F0E0EE0FFF1FE058FE4F859194913B
:1005A0009F878E87DF91CF911F910F9108953FB75D
:1005B000F8948091DD019091DE01A091DF01B0916E
:1005C000E00126B5A89B05C02F3F19F00196A11D9B
:1005D000B11D3FBFBA2FA92F982F8827BC01CD018D
:1005E000620F711D811D911D42E0660F771F881FEC
:1005F000991F4A95D1F708958F929F92AF92BF921B
:10060000CF92DF92EF92FF920E94D7024B015C01E2
:1006100084EFC82EDD24D394E12CF12C0E94D70264
:10062000681979098A099B09683E7340810591051B
:10063000A8F321E0C21AD108E108F10888EE880E7B
:1006400083E0981EA11CB11CC114D104E104F10483
:1006500029F7FF90EF90DF90CF90BF90AF909F90E1
:100660008F9008952091EB013091EC012817390704
:1006700071F49091E9018091EA01981741F0E091BD
:10068000E901F0E0E856FE4F808190E008958FEF99
:100690009FEF08950895EF92FF920F931F93CF93CA
:1006A000DF93DC015C96ED90FC905D97E114F10422
:1006B00079F481E090E013969C938E93129790E0EA
:1006C00080E0DF91CF911F910F91FF90EF900895FF
:1006D0005196ED91FC91529750968C915097982F8E
:1006E00090950FB75E962C915E97122F127021FD98
:1006F0006095F8942081112319F1282B2083E701BC
:100700002197F1F728E0462F50E0308160FF1AC0B2
:10071000382B3083E7012197F1F7BA01759567957A
:10072000215089F7112381F08081892380830FBFB5
:100730005C968D919C910197F1F781E090E0C1CF9B
:100740002923DCCF3923E5CF9081892BEFCF20916E
:10075000EB013091EC012817390771F48091EA011F
:100760002091E90190E0805C9F4F821B910960E439
:1007700070E00E94BB0F089590E080E00895209102
:10078000EB013091EC0128173907B9F49091E90198
:100790008091EA01981789F0E091E901F0E0E856CC
:1007A000FE4F80812091E90130E02F5F3F4F2F7392
:1007B00033272093E90190E008958FEF9FEF08958C
:1007C000E091EB01F091EC01E817F90769F4A389D6
:1007D000B4899C918589809589238C931092EC0132
:1007E0001092EB0181E0089580E00895CF93DF93AC
:1007F000EC011B8E1A8E198E188E1F8A1E8A8DE9A7
:1008000091E09D8F8C8F8C858631E0F52DEB30E06B
:100810003F8B2E8B2BE931E0398F288F2CE231E092
:100820003B8F2A8F90916800883008F44EC021E0F9
:100830008E3008F420E081E001C0880F2A95EAF7A5
:10084000892B809368009C852DE630E0983050F02D
:100850002BE630E09E3030F02CE630E0963110F0A0
:1008600030E020E03C8B2B8B292F30E0983078F55E
:1008700081E001C0880F9A95EAF78D8B8C8D9D8D54
:100880000197F1F78A8D9B8D892BE1F08091EB0127
:100890009091EC01C817D907A9F0009711F00E94B8
:1008A000E0038E8D8E7F8E8F1092EA011092E90107
:1008B000D093EC01C093EB01EB89FC8980819D8989
:1008C000892B8083DF91CF91089584E0B9CF9E304A
:1008D00040F42850310981E001C0880F2A95EAF7D9
:1008E000CCCF2E503109F7CF90E080E008950E94E0
:1008F000FC028DEE91E00E946901892B51F08DEE92
:1009000091E00E944701682F8AE892E00E944B0321
:10091000F0CF8AE892E00E94A703892B51F08AE881
:1009200092E00E94BF03682F8DEE91E00E94AB0120
:10093000F0CF0895FB0101900020E9F73197AF0156
:10094000461B570BDC01ED91FC910280F381E02DF9
:1009500009948F929F92AF92BF920F931F93CF9360
:10096000DF93CDB7DEB7A1970FB6F894DEBF0FBE09
:10097000CDBF19A2423008F44AE08E010F5D1F4F2F
:10098000842E912CB12CA12CA50194010E94CF0F93
:10099000E62FB901CA01EA3004F5E05DD801EE9313
:1009A0008D01232B242B252B79F790E080E01097E5
:1009B00029F0BD018DEE91E00E949A04A1960FB638
:1009C000F894DEBF0FBECDBFDF91CF911F910F9185
:1009D000BF90AF909F908F900895E95CDFCF4F92CA
:1009E0005F926F927F928F929F92AF92BF92CF92BF
:1009F000DF92EF92FF920F931F93CF936B017C01D5
:100A0000742EAC019B010E94B60F6AE271E0811165
:100A100026C046015701E894B7F82FEF3FEF4FE7A4
:100A20005FE7C501B4010E94B60F81110CC02FEF22
:100A30003FEF4FE75FE7C501B4010E94480D6EE24A
:100A400071E0181664F02FEF3FEF4FE75FE4C70146
:100A5000B6010E94B10F1816ACF462E371E08DEE9E
:100A600091E0CF911F910F91FF90EF90DF90CF9089
:100A7000BF90AF909F908F907F906F905F904F90BE
:100A80000C949A042FEF3FEF4FE75FECC701B601DC
:100A90000E94480D87FDE1CF20E030E0A901C701A9
:100AA000B6010E94480D10E000E087FF0AC06DE229
:100AB0008DEE91E00E94AB018C01F7FAF094F7F80B
:100AC000F094C0E060E070E080E09FE37C1641F0CD
:100AD00020E030E040E251E40E94100FCF5FF6CFFB
:100AE000A70196010E94A40E2B013C010E94820FD7
:100AF0004B015C014AE00E94A9047C01E00EF11E5A
:100B0000CC23C1F1C501B4010E944D0D9B01AC0184
:100B1000C301B2010E94A30E4B015C016EE28DEE97
:100B200091E00E94AB01E80EF91EC15018F120E0DF
:100B300030E040E251E4C501B4010E94AE0D2B014A
:100B40003C010E94820F4B01B12CA12C4AE0C5014F
:100B5000B4010E94A904E80EF91EC501B4010E9467
:100B60004D0D9B01AC01C301B2010E94A30E4B01CC
:100B70005C01DBCFC701CF911F910F91FF90EF90E8
:100B8000DF90CF90BF90AF909F908F907F906F90AD
:100B90005F904F9008950F931F93CF93DF93EC01D5
:100BA0000E949A048C0166E371E0CE010E949A04CF
:100BB000800F911FDF91CF911F910F9108950F9397
:100BC0001F93CF93DF938C01EB01FC018081918116
:100BD0000097E1F06881798161157105A9F0428182
:100BE00053812C813D814217530770F00E94F6110A
:100BF0008C819D81F801958384831D821C82DF9105
:100C0000CF911F910F9108950E94A710888199811B
:100C1000F801918380838A819B81938382838C8175
:100C20009D8195838483198218821B821A82E5CF65
:100C3000CF93DF93EC0188819981009711F00E9496
:100C4000A710198218821D821C821B821A82DF91D2
:100C5000CF910895FC0180819181009711F00C944F
:100C6000A71008950F931F93CF93DF93EC01888112
:100C70009981009759F02A813B812617370730F078
:100C800081E0DF91CF911F910F9108958B016F5FEC
:100C90007F4F0E943011009759F0998388831B83FE
:100CA0000A832C813D81232B59F7FC011082E8CF68
:100CB00080E0E7CFEF92FF920F931F93CF93DF93E4
:100CC0006115710541F480E0DF91CF911F910F9183
:100CD000FF90EF90089541155105B1F07B01EC01B3
:100CE0000C811D81040F151FB8010E943206882354
:100CF00051F3288139818C819D81B701820F931F27
:100D00000E94F6111D830C8381E0DECFEF92FF92EB
:100D10000F931F93CF93DF93EC017B018A01BA01FC
:100D20000E94320681110BC0CE010E941806CE012E
:100D3000DF91CF911F910F91FF90EF9008951D8348
:100D40000C83B701888199810E94F611F0CFEF9250
:100D5000FF920F931F93CF93DF93CDB7DEB7A19789
:100D60000FB6F894DEBF0FBECDBF7C01CB01BA0138
:100D7000F7011182108213821282158214828E0171
:100D80000F5F1F4F22E044E00E94F30A0097C9F072
:100D9000FC0101900020E9F73197AF01481B590B86
:100DA000BC01C7010E948606A1960FB6F894DEBF6B
:100DB0000FBECDBFDF91CF911F910F91FF90EF90AC
:100DC0000895C7010E941806EFCFFC01118210821E
:100DD0001382128215821482FB0101900020E9F730
:100DE0003197AF01461B570B0C9486061F920F924A
:100DF0000FB60F9211242F933F934F935F936F93EE
:100E00007F938F939F93AF93BF93EF93FF938DEE59
:100E100091E00E948901FF91EF91BF91AF919F9165
:100E20008F917F916F915F914F913F912F910F9093
:100E30000FBE0F901F9018951F920F920FB60F9232
:100E400011242F938F939F93EF93FF93E091FD01D4
:100E5000F091FE018081E0910302F091040282FD95
:100E60001BC09081809106028F5F8F7320910702D3
:100E7000821741F0E0910602F0E0E351FE4F958FBA
:100E800080930602FF91EF919F918F912F910F9088
:100E90000FBE0F901F9018958081F4CF1F920F9274
:100EA0000FB60F9211242F933F938F939F93AF937D
:100EB000BF938091D9019091DA01A091DB01B091AB
:100EC000DC013091D80123E0230F2D3758F501962E
:100ED000A11DB11D2093D8018093D9019093DA010F
:100EE000A093DB01B093DC018091DD019091DE01E4
:100EF000A091DF01B091E0010196A11DB11D809389
:100F0000DD019093DE01A093DF01B093E001BF917A
:100F1000AF919F918F913F912F910F900FBE0F90A6
:100F20001F90189526E8230F0296A11DB11DD2CF60
:100F30001F920F920FB60F9211242F933F934F934E
:100F40005F936F937F938F939F93AF93BF93EF9331
:100F5000FF93E091EB01F091EC01309749F0A68509
:100F6000B7858585968D91FF14C09C918923A1F446
:100F7000FF91EF91BF91AF919F918F917F916F9171
:100F80005F914F913F912F910F900FBE0F901F9047
:100F900018959C91892361F7A389B4899C918589CF
:100FA000809589238C93868997890197F1F7608DC5
:100FB000718DA685B785558538E020E0CB01019776
:100FC000F1F7822F90E095958795282F4C91452336
:100FD00009F02068315091F7868D81FD2095809130
:100FE000EA0190E001968F7399273091E901381753
:100FF00099F0A091EA01B0E0A856BE4F2C938093DF
:10100000EA01828D938D0197F1F7A389B4898C91C0
:101010009589892B8C93ACCF868D8160868FF1CF9B
:101020001F93CF93DF93282F30E0F901E459FE4F4F
:101030008491F901E855FE4FD491F901EC56FE4F29
:10104000C491CC23A9F0162F81110E941802EC2F15
:10105000F0E0EE0FFF1FE657FE4FA591B4918FB75A
:10106000F894EC91111108C0D095DE23DC938FBF6A
:10107000DF91CF911F910895DE2BF8CFEDEEF1E0D7
:101080001382128288EE93E0A0E0B0E0848395831F
:10109000A683B7838CE191E09183808385EC90E017
:1010A0009587848784EC90E09787868780EC90E032
:1010B000918B808B81EC90E0938B828B82EC90E023
:1010C000958B848B86EC90E0978B868B118E128E9D
:1010D000138E148E68E371E087E493E00E94E506C6
:1010E00068E371E081E493E00E94E50668E371E063
:1010F0008BE393E00E94E50645E064E08CE193E039
:101100000E947202E9EAF2E04FEF5FEFBA0140831A
:1011100051836283738310861186128613868FEF44
:1011200099ECAAE9BBE3808B918BA28BB38B808F68
:10113000918FA28FB38F80A391A3A2A3B3A380A703
:1011400091A7A2A7B3A780AB91ABA2ABB3AB40AFC3
:1011500051AF62AF73AF8FEF90E09093EA0280934C
:10116000E9024093ED025093EE026093EF02709318
:10117000F0024093F5025093F6026093F7027093E9
:10118000F8021092FD021092FE0282E080930E039C
:1011900010920F0310921003109211031092120379
:1011A0001092130310921403109215031092170358
:1011B0001092160310921903109218031092FF0256
:1011C00042E063E08AE892E00C947202CF93DF93EE
:1011D00000D000D000D0CDB7DEB7789484B582605F
:1011E00084BD84B5816084BD85B5826085BD85B5CB
:1011F000816085BD80916E00816080936E00109249
:1012000081008091810082608093810080918100C3
:101210008160809381008091800081608093800054
:101220008091B10084608093B1008091B0008160B2
:101230008093B00080917A00846080937A008091DE
:101240007A00826080937A0080917A008160809336
:101250007A0080917A00806880937A001092C100B1
:10126000E091FD01F091FE0182E08083E091F901BF
:10127000F091FA011082E091FB01F091FC018FECFA
:10128000808310920502E0910102F091020286E053
:101290008083E091FF01F091000280818061808372
:1012A000E091FF01F0910002808188608083E091ED
:1012B000FF01F0910002808180688083E091FF014E
:1012C000F091000280818F7D808360E08DE00E943C
:1012D00041028CE193E00E94F6038AE892E00E94CA
:1012E000F60369E371E08DEE91E00E94CB050E9468
:1012F000FC0299E7292E91E0392E05EB11E021EA55
:10130000A22E21E0B22E30E0832E30E0932EF101A8
:101310008491F801F490F501E490E1101DC1C090B2
:10132000B902D090BA02E090BB02F090BC024090AB
:10133000C1025090C2026090C3027090C40260E08B
:1013400070E08AE794E4FFEFCF16F9ECDF06FAE9E4
:10135000EF06FBE3FF0651F0C701B6010E944F0DF7
:1013600020E034E244E759E40E94100F6093E50165
:101370007093E6018093E7019093E8018FEFC81620
:1013800089ECD8068AE9E8068BE3F80609F4FFC081
:10139000C301B2010E944F0D20E034E244E759E45A
:1013A0000E94100F6093E1017093E2018093E301CA
:1013B0009093E40169E471E08DEE91E00E949A045B
:1013C0006091E5017091E6018091E7019091E8015B
:1013D00042E00E94EF0465E571E08DEE91E00E942D
:1013E0009A046091E1017091E2018091E301909192
:1013F000E40142E00E94EF044091E5015091E601D2
:101400006091E7017091E801CE0101960E94A70664
:10141000BE016F5F7F4F87E493E00E94DF05CE013E
:1014200001960E942A064091E1015091E2016091EB
:10143000E3017091E401CE0101960E94A706BE016E
:101440006F5F7F4F81E493E00E94DF05CE0101963C
:101450000E942A0662E671E0CE0101960E94E5062E
:1014600040914B0350914C036091470370914803A6
:10147000CE0101960E945A06811104C0CE01019648
:101480000E94180643E050E06CE671E0CE01019640
:101490000E945A06811104C0CE0101960E941806CE
:1014A000409145035091460360914103709142037E
:1014B000CE0101960E945A06811104C0CE01019608
:1014C0000E94180642E050E060E771E0CE0101960C
:1014D0000E945A06811104C0CE0101960E9418068E
:1014E00069817A816115710509F456C04D815E816B
:1014F0008BE393E00E948606CE0101960E942A06A5
:1015000063E771E08AE892E00E94CB050E947704CD
:1015100066E771E08AE892E00E94CB050E947704BA
:1015200060E871E08AE892E00E94CB050E947704AF
:1015300040913F035091400360913B0370913C0305
:101540008AE892E00E940B010E9477046AE18AE82F
:1015500092E00E944B030FC081110E941802EE2DF1
:10156000F0E0EE0FFF1FE058FE4FA591B4918C9173
:10157000F82209F4D4CE8114910409F4C8CE0E9453
:101580007501882309F4C3CE0E940000C0CE60E03C
:1015900070E08AE794E406CF8BE393E00E9418069C
:1015A000ABCFCF93DF93CAE0D1E0D0938B02C0934F
:1015B0008A028AE892E00E94E003D0931D03C09360
:1015C0001C038CE193E00E94E0038BE393E00E9414
:1015D0002A0681E493E00E942A0687E493E0DF91E3
:1015E000CF910C942A06EF920F931F93CF93DF9322
:1015F000E80134E047FD34E1042E000C550B57FFA1
:1016000003C0519541955109E32E022F242FAE01BD
:101610000E94110BCE01DF91CF911F910F91EF909E
:101620000895A9E0B0E0E7E1FBE00C94720E6A01D6
:10163000F22EB02E102FFBE3AF2EA01608F41BE302
:101640001F5F012F27E0AE014F5F5F4F0E94700CBC
:10165000BC018981982F9970913009F43FC09BE2B9
:10166000E1FC04C09E2D9170E0FC3AC05E2D5071EB
:10167000E82FE87083FF46C084E0911101C083E049
:10168000EF2DE81B8F1508F0E0E0D6018E2F20E249
:10169000552351F1992329F0D6019C93C601019657
:1016A0006C0196012D5F3F4FE2FE24C08EE4D6010F
:1016B0008C9391E411969C93119712968C93D90177
:1016C0008E2F90E281111BC0E20FF32FF11D1082CB
:1016D0008EEF9FEF2996ECE00C948E0E9DE2C6CF24
:1016E00090E2C4CF2D9381508111FCCFCE0ED11C3E
:1016F000E0E0D0CF8EE6D6018C9391E6DBCF9D93D0
:101700008150E0CF482F447082FF3DC084E09111AA
:1017100001C083E08F1510F4EF2DE81BD6018E2F4A
:1017200020E2552309F1992329F0D6019C93C601A3
:1017300001966C0196012D5F3F4FE2FE1BC089E4CC
:10174000D6018C938EE411968C93119786E41296B1
:101750008C93D9018E2F90E2882309F4B5CF9D9305
:101760008150FACF2D9381508111FCCFCE0ED11C28
:10177000E0E0D9CF89E6D6018C938EE611968C9362
:10178000119786E6E4CF9B0177FF02C030E020E0AE
:10179000A1E0B0E0911102C0B0E0A0E0F901319603
:1017A000AE0FBF1F8B2C912CBB2009F461C05401DC
:1017B000EFEFAE1ABE0AAA0DBB1DFA161B0619F0F2
:1017C00014F04F2D4A1B511188C0E3FC59C076011B
:1017D000A42FB0E2A1114FC0C40ED11C992309F46B
:1017E0005BC040E0D6011196F60190836D01552350
:1017F00009F448C0012F060F9A81582F507184FFB9
:1018000003C0913309F4015010160CF047C00930A1
:1018100008F008E0EEE2FE2E5B01A01AB108850197
:101820009194819491082F3F320729F4D601FC92BC
:10183000F60131966F016217730794F102171307CF
:101840007CF5DB01A21BB30BAA24A394B12CAC0E34
:10185000BD1EAA0DBB1D11968C9121503109D601D8
:10186000119628153905F4F0F60180836D01DBCF60
:10187000B12CA12CA0CFF701B1937F01A150AACF29
:101880009111B0CFD601942F50E302C05D939150D7
:101890009111FCCFC40ED11C40E0ACCF01E0BACF17
:1018A00080E3DBCF6217730731F4963388F4953306
:1018B00011F4552369F0F6018083FD01842F90E235
:1018C000811108C0A40FB11D1C9290E080E002CFEE
:1018D00081E3F1CF91938150F3CF911183CF8ACFE0
:1018E000283008F027E03327DA01990F311D87FDF2
:1018F000916000966105710539F432602E5F3D9369
:1019000030E32A95E1F708959F3F30F08038710564
:10191000610509F03C5F3C5F3D93913008F08068C1
:10192000911DDF93CF931F930F93FF92EF92192F87
:10193000987F9695E92F96959695E90FFF27EE5398
:10194000FF4F99273327EE24FF24A701E7010590D5
:101950000894079428F4360FE71EF81E491F511DFE
:10196000660F771F881F991F0694A1F705900794AB
:1019700028F4E70EF81E491F561FC11D770F881F58
:10198000991F661F0694A1F70590079428F4F80E96
:10199000491F561FC71FD11D880F991F661F771F2C
:1019A0000694A1F70590079420F4490F561FC71F0E
:1019B000D81F990F661F771F881F0694A9F7849177
:1019C0001095177041F0D695C79557954795F794A0
:1019D000E7941A95C1F7E8E6F0E068941590159140
:1019E00035916591959105907FE27395E118F10A23
:1019F000430B560BC90BD009C0F7E10CF11E431F76
:101A0000561FC91FD01D7EF4703311F48A95E6CF9E
:101A1000E894015030F0080F0AF40027021708F488
:101A2000202F2395022F7A3328F079E37D932A958E
:101A3000E9F710C07D932A9589F6069497956795E6
:101A4000379517951794E118F10A430B560BC90BFC
:101A5000D00998F023957E9173957A3308F070E35E
:101A60007C932013B8F77E9170617D9330F083955D
:101A700071E37D9370E32A95E1F71124EF90FF90D5
:101A80000F911F91CF91DF91992787FD9095089530
:101A90000E948A0D08F481E00895E89409C097FB3C
:101AA0003EF490958095709561957F4F8F4F9F4F35
:101AB0009923A9F0F92F96E9BB279395F695879579
:101AC00077956795B795F111F8CFFAF4BB0F11F43C
:101AD00060FF1BC06F5F7F4F8F4F9F4F16C08823E3
:101AE00011F096E911C0772321F09EE8872F762F19
:101AF00005C0662371F096E8862F70E060E02AF05A
:101B00009A95660F771F881FDAF7880F9695879545
:101B100097F90895990F0008550FAA0BE0E8FEEF1A
:101B200016161706E807F907C0F012161306E407A1
:101B3000F50798F0621B730B840B950B39F40A269A
:101B400061F0232B242B252B21F408950A2609F478
:101B5000A140A6958FEF811D811D08950E94C10DA2
:101B60000C94320E0E94240E38F00E942B0E20F0AE
:101B7000952311F00C941B0E0C94210E11240C943F
:101B8000660E0E94430E70F3959FC1F3950F50E0CF
:101B9000551F629FF001729FBB27F00DB11D639F1F
:101BA000AA27F00DB11DAA1F649F6627B00DA11DC5
:101BB000661F829F2227B00DA11D621F739FB00D6B
:101BC000A11D621F839FA00D611D221F749F3327DB
:101BD000A00D611D231F849F600D211D822F762F74
:101BE0006A2F11249F5750409AF0F1F088234AF051
:101BF000EE0FFF1FBB1F661F771F881F91505040BD
:101C0000A9F79E3F510580F00C941B0E0C94660EB4
:101C10005F3FE4F3983ED4F3869577956795B79543
:101C2000F795E7959F5FC1F7FE2B880F911D96955D
:101C3000879597F9089597F99F6780E870E060E0CD
:101C400008959FEF80EC089500240A941616170655
:101C500018060906089500240A941216130614069D
:101C600005060895092E0394000C11F4882352F000
:101C7000BB0F40F4BF2B11F460FF04C06F5F7F4FB8
:101C80008F4F9F4F089557FD9058440F551F59F09F
:101C90005F3F71F04795880F97FB991F61F09F3F59
:101CA00079F087950895121613061406551FF2CF82
:101CB0004695F1DF08C0161617061806991FF1CFD2
:101CC00086957105610508940895E894BB276627F9
:101CD0007727CB0197F908952F923F924F925F9209
:101CE0006F927F928F929F92AF92BF92CF92DF922C
:101CF000EF92FF920F931F93CF93DF93CDB7DEB791
:101D0000CA1BDB0B0FB6F894DEBF0FBECDBF099424
:101D10002A88398848885F846E847D848C849B847B
:101D2000AA84B984C884DF80EE80FD800C811B8189
:101D3000AA81B981CE0FD11D0FB6F894DEBF0FBEB8
:101D4000CDBFED0108955058BB27AA270E94BB0EB6
:101D50000C94320E0E94240E38F00E942B0E20F0BC
:101D600039F49F3F19F426F40C94210E0EF4E095FB
:101D7000E7FB0C941B0EE92F0E94430E58F3BA1791
:101D8000620773078407950720F079F4A6F50C9491
:101D9000650E0EF4E0950B2EBA2FA02D0B01B901A4
:101DA00090010C01CA01A0011124FF27591B99F0D1
:101DB000593F50F4503E68F11A16F040A22F232FDD
:101DC000342F4427585FF3CF469537952795A7952D
:101DD000F0405395C9F77EF41F16BA0B620B730BD4
:101DE000840BBAF09150A1F0FF0FBB1F661F771F45
:101DF000881FC2F70EC0BA0F621F731F841F48F4FA
:101E0000879577956795B795F7959E3F08F0B0CF82
:101E10009395880F08F09927EE0F97958795089569
:101E20000E94240F0C94320E0E942B0E58F00E9438
:101E3000240E40F029F45F3F29F00C941B0E511141
:101E40000C94660E0C94210E0E94430E68F39923A5
:101E5000B1F3552391F3951B550BBB27AA276217A6
:101E60007307840738F09F5F5F4F220F331F441FB3
:101E7000AA1FA9F335D00E2E3AF0E0E832D09150E7
:101E80005040E695001CCAF72BD0FE2F29D0660FD4
:101E9000771F881FBB1F261737074807AB07B0E817
:101EA00009F0BB0B802DBF01FF2793585F4F3AF01D
:101EB0009E3F510578F00C941B0E0C94660E5F3F0C
:101EC000E4F3983ED4F3869577956795B795F795A3
:101ED0009F5FC9F7880F911D9695879597F908958B
:101EE000E1E0660F771F881FBB1F62177307840727
:101EF000BA0720F0621B730B840BBA0BEE1F88F736
:101F0000E09508950E944B0E88F09F5798F0B92FE6
:101F10009927B751B0F0E1F0660F771F881F991F1E
:101F20001AF0BA95C9F714C0B13091F00E94650E4D
:101F3000B1E008950C94650E672F782F8827B85F5D
:101F400039F0B93FCCF3869577956795B395D9F776
:101F50003EF490958095709561957F4F8F4F9F4F80
:101F600008950E948A0D08F48FEF08950E948A0D4B
:101F7000880B990B089597FB072E16F4009407D051
:101F800077FD09D00E94F10F07FC05D03EF4909533
:101F900081959F4F0895709561957F4F0895A1E2B7
:101FA0001A2EAA1BBB1BFD010DC0AA1FBB1FEE1FD3
:101FB000FF1FA217B307E407F50720F0A21BB30B1E
:101FC000E40BF50B661F771F881F991F1A9469F79A
:101FD00060957095809590959B01AC01BD01CF01F6
:101FE0000895AA1BBB1B51E107C0AA1FBB1FA61760
:101FF000B70710F0A61BB70B881F991F5A95A9F7B2
:1020000080959095BC01CD010895EE0FFF1F0590BE
:10201000F491E02D09940F931F93CF93DF938230B7
:10202000910510F482E090E0E0914F03F0915003AD
:1020300030E020E0B0E0A0E0309799F421153105C0
:1020400009F44AC0281B390B24303105D8F58A81A0
:102050009B816115710589F1FB0193838283FE01E8
:1020600011C0408151810281138148175907E0F066
:102070004817590799F4109761F012960C9312972C
:1020800013961C933296CF01DF91CF911F910F9140
:10209000089500934F0310935003F4CF2115310599
:1020A00051F04217530738F0A901DB019A01BD0135
:1020B000DF01F801C1CFEF01F9CF90935003809376
:1020C0004F03CDCFFE01E20FF31F81939193225076
:1020D000310939832883D7CF20914D0330914E03A6
:1020E000232B41F4209102013091030130934E03E0
:1020F00020934D03209100013091010121153105FC
:1021000041F42DB73EB74091040150910501241BC5
:10211000350BE0914D03F0914E03E217F307A0F465
:102120002E1B3F0B2817390778F0AC014E5F5F4F2D
:102130002417350748F04E0F5F1F50934E0340930E
:102140004D03819391939FCFF0E0E0E09CCFCF933C
:10215000DF930097E9F0FC01329713821282A0917D
:102160004F03B0915003ED0130E020E01097A1F44F
:1021700020813181820F931F20914D0330914E03B6
:102180002817390709F061C0F0934E03E0934D031F
:10219000DF91CF910895EA01CE17DF07E8F54A8174
:1021A0005B819E0141155105B1F7E901FB83EA838B
:1021B00049915991C40FD51FEC17FD0761F4808137
:1021C00091810296840F951FE9019983888382810A
:1021D00093819B838A83F0E0E0E012968D919C913D
:1021E00013970097B9F52D913C911197CD01029667
:1021F000820F931F20914D0330914E03281739070A
:1022000039F6309751F51092500310924F03B09366
:102210004E03A0934D03BCCFD383C2834081518131
:10222000840F951FC817D90761F44E5F5F4F8881EF
:102230009981480F591F518340838A819B819383E1
:1022400082832115310509F0B0CFF0935003E0935C
:102250004F039ECFFD01DC01C0CF13821282D7CF86
:10226000B0E0A0E0E6E3F1E10C946E0E8C01009783
:1022700051F4CB010E940B108C01C801CDB7DEB721
:10228000E0E10C948A0EFC01E60FF71F9C0122503E
:102290003109E217F30708F49DC0D901CD91DC9113
:1022A0001197C617D70798F0C530D10530F3CE0186
:1022B00004978617970708F3C61BD70B2297C1937D
:1022C000D1936D937C93CF010E94A710D6CF5B0171
:1022D000AC1ABD0A4C018C0E9D1EA0914F03B0910B
:1022E0005003512C412CF12CE12C109731F58091A9
:1022F0004D0390914E038815990509F05CC0461670
:10230000570608F058C08091000190910101009794
:1023100041F48DB79EB74091040150910501841B93
:10232000950BE817F90708F055C0F0934E03E093BA
:102330004D03F90171836083A0CF8D919C9111971A
:1023400012966C90129713967C901397A815B90566
:1023500059F56C0142E0C40ED11CCA14DB0420F113
:10236000AC014A195B09DA011296159780F0628276
:10237000738251834083D9016D937C93E114F104FE
:1023800071F0D7011396FC93EE93129776CF2296B5
:102390008C0F9D1FF90191838083F301EFCFF093A0
:1023A0005003E0934F0369CF4816590608F42C01F7
:1023B0007D01D3019ACFCB010E940B107C010097C5
:1023C00049F0AE01B8010E94ED11C8010E94A710AA
:1023D000870153CF10E000E050CFFB01DC0102C0C9
:1023E00001900D9241505040D8F70895FB01DC0157
:1023F00001900D920020E1F7089510E0CFEDD0E0BC
:1024000004C0FE010E9405102196C03ED107C9F705
:04241000F894FFCF6E
:10241400000051038000000000004B030B01740412
:102424004A03A703BF03320300000000AB010B0102
:102434003801F801690147015B016E616E00696E44
:1024440066006F7666000D0A00496E697469616CF6
:10245400697A696E672E2E2E004C617469747564F6
:1024640065203D20004C6F6E676974756465203D7E
:10247400200048656C702121212020004520200087
:102484004E200041540041542B434D47463D3100FA
:1024940041542B434D47533D222B3931373231348C
:0824A4003735363833362200CB
:00000001FF
